{
  "contractName": "Bank",
  "abi": [
    {
      "constant": false,
      "inputs": [],
      "name": "NewAccount",
      "outputs": [],
      "payable": false,
      "stateMutability": "nonpayable",
      "type": "function"
    },
    {
      "constant": false,
      "inputs": [],
      "name": "Balance",
      "outputs": [
        {
          "name": "",
          "type": "uint256"
        }
      ],
      "payable": false,
      "stateMutability": "nonpayable",
      "type": "function"
    },
    {
      "constant": false,
      "inputs": [
        {
          "name": "amount",
          "type": "uint256"
        }
      ],
      "name": "Deposit",
      "outputs": [
        {
          "name": "",
          "type": "uint256"
        }
      ],
      "payable": true,
      "stateMutability": "payable",
      "type": "function"
    },
    {
      "constant": false,
      "inputs": [
        {
          "name": "amount",
          "type": "uint256"
        }
      ],
      "name": "Withdraw",
      "outputs": [
        {
          "name": "",
          "type": "uint256"
        }
      ],
      "payable": true,
      "stateMutability": "payable",
      "type": "function"
    },
    {
      "constant": false,
      "inputs": [
        {
          "name": "to",
          "type": "address"
        },
        {
          "name": "amount",
          "type": "uint256"
        }
      ],
      "name": "Transfer",
      "outputs": [
        {
          "name": "",
          "type": "uint256"
        }
      ],
      "payable": true,
      "stateMutability": "payable",
      "type": "function"
    },
    {
      "inputs": [],
      "payable": false,
      "stateMutability": "nonpayable",
      "type": "constructor"
    }
  ],
  "bytecode": "0x6060604052341561000f57600080fd5b6104268061001e6000396000f30060606040526004361061006d576000357c0100000000000000000000000000000000000000000000000000000000900463ffffffff168063022002e8146100725780630ef67887146100875780634d6ce1e5146100b05780635b6b431d146100dc57806369ca02dd14610108575b600080fd5b341561007d57600080fd5b610085610153565b005b341561009257600080fd5b61009a610155565b6040518082815260200191505060405180910390f35b6100c6600480803590602001909190505061019b565b6040518082815260200191505060405180910390f35b6100f2600480803590602001909190505061022f565b6040518082815260200191505060405180910390f35b61013d600480803573ffffffffffffffffffffffffffffffffffffffff169060200190919080359060200190919050506102c3565b6040518082815260200191505060405180910390f35b565b60008060003373ffffffffffffffffffffffffffffffffffffffff1673ffffffffffffffffffffffffffffffffffffffff16815260200190815260200160002054905090565b6000816000803373ffffffffffffffffffffffffffffffffffffffff1673ffffffffffffffffffffffffffffffffffffffff168152602001908152602001600020600082825401925050819055506000803373ffffffffffffffffffffffffffffffffffffffff1673ffffffffffffffffffffffffffffffffffffffff168152602001908152602001600020549050919050565b6000816000803373ffffffffffffffffffffffffffffffffffffffff1673ffffffffffffffffffffffffffffffffffffffff168152602001908152602001600020600082825403925050819055506000803373ffffffffffffffffffffffffffffffffffffffff1673ffffffffffffffffffffffffffffffffffffffff168152602001908152602001600020549050919050565b6000816000803373ffffffffffffffffffffffffffffffffffffffff1673ffffffffffffffffffffffffffffffffffffffff168152602001908152602001600020541015156103a957816000808573ffffffffffffffffffffffffffffffffffffffff1673ffffffffffffffffffffffffffffffffffffffff16815260200190815260200160002060008282540192505081905550816000803373ffffffffffffffffffffffffffffffffffffffff1673ffffffffffffffffffffffffffffffffffffffff168152602001908152602001600020600082825403925050819055506103b2565b600190506103f4565b6000803373ffffffffffffffffffffffffffffffffffffffff1673ffffffffffffffffffffffffffffffffffffffff1681526020019081526020016000205490505b929150505600a165627a7a723058209905b7727d10951d372251043c9e68d227596f8d85dbe40c68bca582d3ab9dbb0029",
  "source": "pragma solidity ^0.4.18;\n\ncontract Bank {\n\tmapping(address => uint) accounts;\n\n\tfunction Bank() {\n\t\t\n\t}\n\n\tfunction NewAccount(){\n\n\t}\n\n\tfunction Deposit(uint amount) public payable returns (uint){\n\t\taccounts[msg.sender] += amount;\n\n\t\treturn accounts[msg.sender];\n\t}\n\n\tfunction Withdraw(uint amount) public payable returns (uint){\n\t\taccounts[msg.sender] -= amount;\n\n\t\treturn accounts[msg.sender];\n\t}\n\n\tfunction Balance() public returns (uint){\n\t\treturn accounts[msg.sender];\n\t}\n\n\tfunction Transfer(address to, uint amount) public payable returns (uint) {\n\t\tif (accounts[msg.sender] >= amount) {\n\t\t\taccounts[to] += amount;\n\t\t\taccounts[msg.sender] -= amount;\n\t\t} else {\n\t\t\treturn 1;\n\t\t}\n\n\t\treturn accounts[msg.sender];\n\t}\n}\n",
  "sourcePath": "/home/fanzy/git/blockchainWeekHack18/contracts/Bank.sol",
  "compiler": {
    "name": "solc",
    "version": "0.4.18+commit.9cf6e910.Emscripten.clang"
  },
  "schemaVersion": "1.0.1",
  "updatedAt": "2018-01-20T21:15:37.054Z"
}