{
  "contractName": "SimpleStorage",
  "abi": [
    {
      "constant": false,
      "inputs": [],
      "name": "Balance",
      "outputs": [
        {
          "name": "",
          "type": "uint256"
        }
      ],
      "payable": false,
      "stateMutability": "nonpayable",
      "type": "function"
    },
    {
      "constant": false,
      "inputs": [
        {
          "name": "amount",
          "type": "uint256"
        }
      ],
      "name": "Deposit",
      "outputs": [
        {
          "name": "",
          "type": "uint256"
        }
      ],
      "payable": true,
      "stateMutability": "payable",
      "type": "function"
    },
    {
      "constant": false,
      "inputs": [],
      "name": "Accounts",
      "outputs": [],
      "payable": false,
      "stateMutability": "nonpayable",
      "type": "function"
    },
    {
      "constant": false,
      "inputs": [
        {
          "name": "amount",
          "type": "uint256"
        }
      ],
      "name": "Withdraw",
      "outputs": [
        {
          "name": "",
          "type": "uint256"
        }
      ],
      "payable": true,
      "stateMutability": "payable",
      "type": "function"
    },
    {
      "constant": false,
      "inputs": [
        {
          "name": "to",
          "type": "address"
        },
        {
          "name": "amount",
          "type": "uint256"
        }
      ],
      "name": "Transfer",
      "outputs": [
        {
          "name": "",
          "type": "uint256"
        }
      ],
      "payable": true,
      "stateMutability": "payable",
      "type": "function"
    }
  ],
  "bytecode": "0x6060604052341561000f57600080fd5b6104268061001e6000396000f30060606040526004361061006d576000357c0100000000000000000000000000000000000000000000000000000000900463ffffffff1680630ef67887146100725780634d6ce1e51461009b5780634fa54e25146100c75780635b6b431d146100dc57806369ca02dd14610108575b600080fd5b341561007d57600080fd5b610085610153565b6040518082815260200191505060405180910390f35b6100b16004808035906020019091905050610199565b6040518082815260200191505060405180910390f35b34156100d257600080fd5b6100da61022d565b005b6100f2600480803590602001909190505061022f565b6040518082815260200191505060405180910390f35b61013d600480803573ffffffffffffffffffffffffffffffffffffffff169060200190919080359060200190919050506102c3565b6040518082815260200191505060405180910390f35b60008060003373ffffffffffffffffffffffffffffffffffffffff1673ffffffffffffffffffffffffffffffffffffffff16815260200190815260200160002054905090565b6000816000803373ffffffffffffffffffffffffffffffffffffffff1673ffffffffffffffffffffffffffffffffffffffff168152602001908152602001600020600082825401925050819055506000803373ffffffffffffffffffffffffffffffffffffffff1673ffffffffffffffffffffffffffffffffffffffff168152602001908152602001600020549050919050565b565b6000816000803373ffffffffffffffffffffffffffffffffffffffff1673ffffffffffffffffffffffffffffffffffffffff168152602001908152602001600020600082825403925050819055506000803373ffffffffffffffffffffffffffffffffffffffff1673ffffffffffffffffffffffffffffffffffffffff168152602001908152602001600020549050919050565b6000816000803373ffffffffffffffffffffffffffffffffffffffff1673ffffffffffffffffffffffffffffffffffffffff168152602001908152602001600020541015156103a957816000808573ffffffffffffffffffffffffffffffffffffffff1673ffffffffffffffffffffffffffffffffffffffff16815260200190815260200160002060008282540192505081905550816000803373ffffffffffffffffffffffffffffffffffffffff1673ffffffffffffffffffffffffffffffffffffffff168152602001908152602001600020600082825403925050819055506103b2565b600190506103f4565b6000803373ffffffffffffffffffffffffffffffffffffffff1673ffffffffffffffffffffffffffffffffffffffff1681526020019081526020016000205490505b929150505600a165627a7a72305820d49c9dcd7fd477ebcf5c4c60bfbc52edce04b6571f51bc4785a668a81487b1420029",
  "source": "pragma solidity ^0.4.18;\n\ncontract SimpleStorage {\n\tmapping(address => uint) accounts;\n\n\tfunction Accounts() {\n\t\t\n\t}\n\n\tfunction Deposit(uint amount) public payable returns (uint){\n\t\taccounts[msg.sender] += amount;\n\n\t\treturn accounts[msg.sender];\n\t}\n\n\tfunction Withdraw(uint amount) public payable returns (uint){\n\t\taccounts[msg.sender] -= amount;\n\n\t\treturn accounts[msg.sender];\n\t}\n\n\tfunction Balance() public returns (uint){\n\t\treturn accounts[msg.sender];\n\t}\n\n\tfunction Transfer(address to, uint amount) public payable returns (uint) {\n\t\tif (accounts[msg.sender] >= amount) {\n\t\t\taccounts[to] += amount;\n\t\t\taccounts[msg.sender] -= amount;\n\t\t} else {\n\t\t\treturn 1;\n\t\t}\n\n\t\treturn accounts[msg.sender];\n\t}\n}\n",
  "sourcePath": "/home/fanzy/git/blockchainWeekHack18/contracts/SimpleStorage.sol",
  "compiler": {
    "name": "solc",
    "version": "0.4.18+commit.9cf6e910.Emscripten.clang"
  },
  "schemaVersion": "1.0.1",
  "updatedAt": "2018-01-21T10:11:00.354Z"
}